:020000043000CA
:10000000FFFFFFFFFFFFFFFFFFFFFFFFFFFFFFFF00
:10001000FFFFFFFFFFFFFFFFFFFFFFFFFFFFFFFFF0
:10002000FFFFFFFFFFFFFFFFFFFFFFFFFFFFFFFFE0
:10003000FFFFFFFFFFFFFFFFFFFFFFFFFFFFFFFFD0
:100400004643464200040156000000000103030079
:1004100000000000000000000000000000000000DC
:1004200000000000000000000000000000000000CC
:1004300000000000000000000000000000000000BC
:100440001000000001040700000000000000000090
:100450000000000400000000000000000000000098
:10046000000000000000000000000000000000008C
:10047000000000000000000000000000000000007C
:10048000EB04180A001E04320426000000000000DD
:10049000000000000000000000000000000000005C
:1004A000000000000000000000000000000000004C
:1004B000000000000000000000000000000000003C
:1004C000000000000000000000000000000000002C
:1004D000000000000000000000000000000000001C
:1004E000000000000000000000000000000000000C
:1004F00000000000000000000000000000000000FC
:1005000000000000000000000000000000000000EB
:1005100000000000000000000000000000000000DB
:1005200000000000000000000000000000000000CB
:1005300000000000000000000000000000000000BB
:1005400000000000000000000000000000000000AB
:10055000000000000000000000000000000000009B
:10056000000000000000000000000000000000008B
:10057000000000000000000000000000000000007B
:10058000000000000000000000000000000000006B
:10059000000000000000000000000000000000005B
:1005A000000000000000000000000000000000004B
:1005B000000000000000000000000000000000003B
:1005C0000001000000100000010000000000000019
:1005D0000000040000000000000000000000000017
:1005E000000000000000000000000000000000000B
:1005F00000000000000000000000000000000000FB
:10060000FFFFFFFFFFFFFFFFFFFFFFFFFFFFFFFFFA
:10061000FFFFFFFFFFFFFFFFFFFFFFFFFFFFFFFFEA
:10100000D1002041C1240030000000003010003029
:101010002010003000100030000000000000000030
:10102000000000300000100000000000FFFFFFFF84
:10103000D2039841CC02EC0440CC0200000006022E
:10104000400E801000000000400E801400000000E0
:10105000400E801800000000400E801C00000000C0
:10106000400E802000000000400E802400000000A0
:10107000400E802800000000400E802C0000000080
:10108000400E803000000000400E80340000000060
:10109000400E803800000000400E803C0000000040
:1010A000400E804000000000400E80440000000020
:1010B000400E804800000000400E804C0000000000
:1010C000400E805000000000400E805400000000E0
:1010D000400E805800000000400E805C00000000C0
:1010E000400E806000000000400E806400000000A0
:1010F000400E806800000000400E806C0000000080
:10110000400E807000000000400E8074000000005F
:10111000400E807800000000400E807C000000003F
:10112000400E808000000000400E8084000000001F
:10113000400E808800000000400E808C00000000FF
:10114000400E809000000000400E809400000000DF
:10115000400E809800000000400E809C00000000BF
:10116000400E80A000000000400E80A4000000009F
:10117000400E80A800000000400E80AC000000106F
:10118000400E825400000008400E82580000000803
:10119000400E825C00000008400E826000000008E3
:1011A000400E826400000008400E826800000008C3
:1011B000400E826C00000008400E827000000008A3
:1011C000400E827400000008400E82780000000883
:1011D000400E827C00000008400E82800000000863
:1011E000400E828400000008400E82880000000843
:1011F000400E828C00000008400E82900000000823
:10120000400E829400000008400E82980000000802
:10121000400E829C00000008400E82A000000008E2
:10122000400E82A400000008400E82A800000008C2
:10123000400E82AC00000008400E82B000000008A2
:10124000400E82B400000008400E82B80000000882
:10125000400E82BC00000008400E82C00000000862
:10126000400E82C400000008400E82C80000000842
:10127000400E82CC00000008400E82D00000000822
:10128000400E82D400000008400E82D80000000802
:10129000400E82DC00000008400E82E000000008E2
:1012A000400E82E400000008400E82E800000008C2
:1012B000400E82EC00000008400E82F000000008A2
:1012C000400D400010000004400D40080000008167
:1012D000400D400C00000081400D40108000001BBC
:1012E000400D404000000F31400D404400772A225D
:1012F000400D404800010A0D400D404C21210408DA
:10130000400D409080000000400D4094000000021D
:10131000400D409800000000400D409CA55A000F71
:10132000C0000400C0000400C0000400C0000400AD
:10133000C0000400CC001404400D403C0000000339
:10134000400D409CA55A000CC0000400C0000400E1
:10135000C0000400C0000400C0000400CC0014045D
:10136000400D403C00000003400D409CA55A000C7D
:10137000C0000400C0000400C0000400C00004005D
:10138000C0000400CC001C04400D403C00000003E1
:10139000400D40A000000033400D409CA55A000ABB
:1013A000C0000400C0000400C0000400C00004002D
:1013B000C0000400CC001404400D403C00000003B9
:1013C000400D404C21210409FFFFFFFFFFFFFFFFFD
:1013D000FFFFFFFFFFFFFFFFFFFFFFFFFFFFFFFF1D
:1013E000FFFFFFFFFFFFFFFFFFFFFFFFFFFFFFFF0D
:1013F000FFFFFFFFFFFFFFFFFFFFFFFFFFFFFFFFFD
:10140000FFFFFFFFFFFFFFFFFFFFFFFFFFFFFFFFEC
:1020000000002C20C1240030952500309BCC0130ED
:1020100099250030CDCF01309D2500300000000013
:10202000000000000000000000000000B1250030AA
:10203000A125003000000000E1250030B90F01307B
:10204000FBC4013003C501300BC5013013C501309D
:102050001BC5013023C501302BC5013033C501300C
:102060003BC5013043C501304BC5013053C501307C
:102070005BC5013063C501306BC5013073C50130EC
:102080007BC5013083C501308BC5013093C501305C
:102090007D0D0230910D0230A50D0230B90D0230D8
:1020A000CD0D0230E10D0230F50D02309BC501303F
:1020B000A3C50130ABC50130B3C50130090E0230F4
:1020C000BBC50130C3C50130CBC50130D3C501301C
:1020D000DBC50130E3C50130EBC50130F3C501308C
:1020E000FBC5013003C601300BC6013013C60130F9
:1020F0001BC6013023C601302BC6013033C6013068
:102100003BC6013043C601304BC6013053C60130D7
:102110005BC6013063C601306BC6013073C6013047
:102120007BC6013083C601308BC6013093C60130B7
:102130009BC60130A3C60130ABC60130B3C6013027
:10214000BBC60130C3C60130CBC60130D3C6013097
:10215000DBC60130E3C60130EBC60130F3C6013007
:10216000FBC6013003C701300BC7013013C7013074
:102170001BC7013023C701302BC7013033C70130E3
:102180003BC7013043C701304BC7013053C7013053
:102190005BC7013063C701306BC7013073C70130C3
:1021A0007BC7013083C701308BC7013093C7013033
:1021B0009BC70130A3C70130ABC70130B3C70130A3
:1021C000BBC70130C3C70130CBC70130D3C7013013
:1021D000DBC70130E3C70130EBC70130F3C7013083
:1021E000FBC7013003C801300BC8013013C80130F0
:1021F0001BC8013023C801302BC8013033C801305F
:102200003BC8013043C801304BC8013053C80130CE
:102210005BC8013063C801306BC8013073C801303E
:102220007BC8013083C801308BC8013093C80130AE
:102230009BC80130A3C80130ABC80130B3C801301E
:10224000BBC80130C3C80130CBC80130D3C801308E
:10225000DBC80130E3C80130EBC801303969003018
:102260001D690030F3C80130FBC8013003C90130DB
:102270000BC9013013C901301BC9013023C901301A
:102280002BC9013033C901303BC9013043C901308A
:102290004BC9013053C901305BC9013063C90130FA
:1022A0006BC9013073C901307BC9013083C901306A
:1022B0008BC9013093C901309BC90130A3C90130DA
:1022C000ABC90130B3C90130BBC90130C3C901304A
:1022D000CBC90130D3C90130DBC90130E3C90130BA
:1022E000EBC90130F3C90130FBC9013003CA013029
:1022F0000BCA013013CA01301BCA013023CA013096
:102300002BCA013033CA01303BCA013043CA013005
:102310004BCA013053CA01305BCA013063CA013075
:102320006BCA013073CA01307BCA013083CA0130E5
:102330008BCA013093CA01309BCA0130A3CA013055
:10234000ABCA0130B3CA0130BBCA0130C3CA0130C5
:10235000CBCA0130D3CA0130DBCA0130E3CA013035
:10236000EBCA0130F3CA0130FBCA013003CB0130A4
:102370000BCB013013CB01301BCB013023CB013011
:102380002BCB013033CB01303BCB013043CB013081
:102390004BCB013053CB01305BCB013063CB0130F1
:1023A0006BCB013073CB01305C6202300000002047
:1023B000480200004C4A02300000000010180000E3
:1023C0005C62023000000080000000005C620230AD
:1023D00000000081000000005C6202300000242048
:1023E000000000005C6202300000342000000000A9
:1023F0000010002040310400101800000000000010
:1024000000000080000000000000008100000000CB
:102410000000242000000000000034200000000024
:1024200010B40B464FF0000C05E050F8044B43F895
:10243000044B0CF1040C9445F7D30D4B5B6913F47A
:10244000803F11D0002A0FDD01F01F031A44BFF3B3
:102450004F8F074BC3F868122031203A002AF8DC6E
:10246000BFF34F8FBFF36F8F5DF8044B704700BF12
:1024700000ED00E010B40346002203E0002443F81E
:10248000044B04328A42F9D30C4B5B6913F4803F4E
:1024900011D000290FDD00F01F031944BFF34F8F47
:1024A000064BC3F86802203020390029F8DCBFF35E
:1024B0004F8FBFF36F8F5DF8044B704700ED00E066
:1024C00010B586B072B62E4C84F3088884F3098860
:1024D00003F0C4FE0594EFF3148313F0020F16D03B
:1024E000EFF309830493059B049A9B1A0393254BEE
:1024F0000293029B039A9B1A0193BFF34F8FBFF382
:102500006F8F0599013902980138002208E0EFF336
:102510000883E7E711F80139DBB200F8013901322D
:10252000039B9342F6D8EFF3148313F0020F08D005
:10253000019B83F30988BFF36F8F13F0C3FB124B2A
:102540000BE0019B83F30888F5E703F10C049A681C
:1025500059681868FFF764FF23460C4A9342F4D386
:1025600006E01C46596854F8080BFFF783FF234622
:10257000074A9342F5D362B605F0F6FCFEE700BFCA
:1025800000002C2000000620A8230030F02300309B
:1025900020240030FEE7FEE7FEE7FEE7FEE7FEE769
:1025A000FEE7FEE7FEE7FEE7FFFFFFFFFFFFFFFF9F
:1025B000074B19680868B0E8F04F80F30988BFF34B
:1025C0006F8F4FF0000080F311887047AFF30080E9
:1025D000D43D042000BF00BFFFFFFFFFFFFFFFFF50
:1025E000EFF30980BFF36F8F154B1A681EF0100FC1
:1025F00008BF20ED108A20E9F04F10602DE9090096
:102600004FF0200080F31188BFF34F8FBFF36F8F1F
:102610000FF0D6FA4FF0000080F3118809BC19685A
:102620000868B0E8F04F1EF0100F08BFB0EC108A39
:1026300080F30988BFF36F8F704700BFAFF300804E
:10264000D43D042000BF00BFFFFFFFFFFFFFFFFFDF
:1026500001F0FF01102A2BDB10F0070F08D010F853
:10266000013B013A8B422DD010F0070F42B3F6D157
:10267000F0B441EA012141EA014122F007047FF070
:1026800000070023F0E80256083C85EA010586EAC7
:10269000010685FA47F5A3FA87F586FA47F6A5FA03
:1026A00087F68EB9EED1F0BC01F0FF0102F007020F
:1026B00032B110F8013B013A83EA010313B1F8D1BA
:1026C0000020704701387047002D06BF354603389B
:1026D000073815F0010F07D1013015F4807F02BFD4
:1026E000013015F4C03F0130F0BC0138704700BF25
:1026F00080B483B000AF7860396079684FF0000231
:102700004FF00003C1E9002379684FF000024FF059
:102710000003C1E902233B68002B30D1796836A35E
:10272000D3E90023C1E90423796835A3D3E9002361
:10273000C1E90623796834A3D3E90023C1E908235A
:10274000796833A3D3E90023C1E90A23796832A366
:10275000D3E90023C1E90C23796831A3D3E900232D
:10276000C1E90E23796830A3D3E90023C1E910231E
:1027700079682FA3D3E90023C1E912232FE07968F8
:102780002DA3D3E90023C1E9042379682CA3D3E95D
:102790000023C1E9062379682BA3D3E90023C1E90B
:1027A000082379682AA3D3E90023C1E90A237968B9
:1027B00029A3D3E90023C1E90C23796828A3D3E92D
:1027C0000023C1E90E23796827A3D3E90023C1E9D7
:1027D0001023796826A3D3E90023C1E912237B687B
:1027E0003A68C3F8D020002318460C37BD465DF880
:1027F000047B7047AFF3008008C9BCF367E6096A41
:102800003BA7CA8485AE67BB2BF894FE72F36E3C7F
:10281000F1361D5F3AF54FA5D182E6AD7F520E51DC
:102820001F6C3E2B8C68059B6BBD41FBABD9831F96
:1028300079217E1319CDE05BD89E05C15D9DBBCB90
:1028400007D57C362A299A6217DD70305A015991D2
:1028500039590EF7D8EC2F15310BC0FF67263367B7
:1028600011155868874AB48EA78FF9640D2E0CDBBA
:10287000A44FFABE1D48B54780B58CB000AF0346E3
:10288000FB710023FB6297F90730042B0AD097F9FC
:102890000730052B06D0364B364A40F26751364892
:1028A00000F06CF897F90730042B01D1022300E007
:1028B0000323002118461DF015FBB862BB6A5B0EAE
:1028C00003F007037B62BB6A03F07F03BB6297F9E7
:1028D0000730042B01D1022300E0032330211846E6
:1028E0001DF000FB07EE900AB8EE677B87ED067BD4
:1028F00097F90730042B01D1022300E003232021A4
:1029000018461DF0EFFA07EE900AB8EE677B87EDE8
:10291000047BBB6A07EE903AB8EE676B97ED044B09
:1029200097ED065B84EE057B36EE077B9FED0E6B25
:1029300027EE065B01227B6A02FA03F307EE903A68
:10294000B8EE676B85EE067B87ED027B97ED027B29
:10295000FCEEC77B17EE903AFB62FB6A18463037F5
:10296000BD4680BDAFF300800000000060E376410B
:102970004C3D0230D03D02307C3C023080B586B008
:1029800002AFF860B9607A603B607B680093BB6817
:10299000FA683968024800F063FA00BEFDE700BF3C
:1029A000A022023080B584B000AFF860B960134651
:1029B000FB80FB68002B11D0BB68002B0ED0FB887E
:1029C00043F2235293420AD0FB88002B07D1054BD8
:1029D0001B68002118461CF031FF00E000BF1037D3
:1029E000BD4680BD3823022080B588B000AF786036
:1029F000396000237B617B68002BFCD03B68002B97
:102A0000FCD016F09FFCF860494BD3F82C21484BC2
:102A1000D3F830319A4216D001237B61444BD3F86E
:102A20002C21434BD3F828311A44414BD3F8303191
:102A3000D31A3F4AD2F82821B3FBF2F101FB02F28C
:102A40009B1ABB6101E00023BB61394BD3F82821FD
:102A5000BB69D31A013BBB61BA693B689A4205D294
:102A6000F86816F080FC4FF0FF335CE000233B6118
:102A70001EE03B697A681A442D4BD3F82C31591C5F
:102A80002B48C0F82C111178294A13440A4683F8C0
:102A90003421274BD3F82C21254BD3F828319A42E7
:102AA00003D3234B0022C3F82C213B6901333B6144
:102AB0003B683A699A42DCDB0023FB617B69002BAF
:102AC00027D11B4BD3F82C21194BD3F830319A4224
:102AD00008D9174BD3F82C21154BD3F83031D31A22
:102AE000BB6107E0124BD3F82821114BD3F83031EA
:102AF000D31ABB610E4BD3F8303103F598730C4AEF
:102B000013440433BA6919460A481EF00FFC034601
:102B1000FB61F86816F027FCFB69002B01D13B68CC
:102B200001E04FF0FF3318462037BD4680BD00BF9F
:102B3000401900207420002080B588B000AF786074
:102B4000396043F22153FB823B68BB617B68002BF9
:102B5000FCD03B68002BFCD0304B1B68002B01D114
:102B6000002357E016F0EEFB38612D4BD3F82C21F3
:102B70002B4BD3F830319A4214D0294BD3F82C2167
:102B8000274BD3F828311A44254BD3F83031D31AC8
:102B9000234AD2F82821B3FBF2F101FB02F29B1A7F
:102BA000FB6101E00023FB611D4BD3F82821FB6989
:102BB000D31A013BFB61FB69002B16D0FA69BB6994
:102BC0009A4201D9BB69FB613A68BB69D31A7A683A
:102BD0001344F9691846FFF707FFF860FB68002BFC
:102BE00003DDFB68BA69D31ABB61386916F0BBFB19
:102BF000BB69002B06D000F00FF90346FB82FB8A6D
:102C0000002B03D1BB69002BACD100E000BF3A68B8
:102C1000BB69D31A18462037BD4680BD3C2302202D
:102C20004019002080B58EB000AFB9607B600346CC
:102C3000FB731346BB730023FB8607F114030022CA
:102C40001A605A609A60DA607B687B61BB68BB611E
:102C50000123BB770123FB77FB7B87F82230BB7B0B
:102C600087F82C303D4B7B624FF48063BB62BB7BAB
:102C7000012B03D107F114033B6317E0BB7B022B4D
:102C800003D143F22153FB8610E0BB7B032B03D11E
:102C900043F22153FB8609E0BB7B042B03D143F2B3
:102CA0002153FB8602E043F22153FB86FB8E43F265
:102CB000215293424CD040F28C72002128481EF0E1
:102CC00024FF274B4FF40072C3F82821244B254AD8
:102CD0001A60234B1B6807F124021146184613F0B3
:102CE000F5FC0346FB86FB8E002BFCD101201CF07B
:102CF0002EFD03461C4A13600322002101201CF014
:102D0000BDFC0346194A1360154B1B681849184649
:102D100013F03CFD0346FB86FB8E002BFCD1104AD2
:102D20001449134813F0CCFE0D4B1B68124918468A
:102D300013F098FD0346FB86FB8E002BFCD1084A5E
:102D40000E490D4813F0DCFE054B1B680C4A13605E
:102D5000FB8E18463837BD4680BD00BF741C00206E
:102D60004019002044190020342302203823022077
:102D70007420002087930130A0200020A529003076
:102D80003C23022080B500AF1D4B1B68002B02D0F6
:102D90001C4813F033FD1A4B1B68002B02D01A4855
:102DA00013F0A0FD164B1B68002B0DD0144B1B68B5
:102DB00018461EF08EFA0346002B05D1104B002258
:102DC0001A60124B00221A60114B1B68002B07D0AF
:102DD0000F4B1B6818461CF087FD0D4B00221A6034
:102DE0000C4B1B68002B07D00A4B1B6818461CF0C5
:102DF0007BFD084B00221A600023184680BD00BFEF
:102E00004019002074200020A02000203C23022034
:102E1000382302203423022080B582B000AF10E0B6
:102E2000EFF305837B607B68002B08D10FF0D4F8AB
:102E30000346022B05D101200EF0F2FB01E0012335
:102E400008E0064BD3F82C21044BD3F830319A42DA
:102E5000E6D1002318460837BD4680BD4019002042
:102E60000FB480B5C4B000AF0023C7F80831002309
:102E7000C7F80C3107F58873A3F5867300221A6032
:102E80000433FC22002118461EF03FFE124B1B6843
:102E9000002B16D007F58E73C7F804313A1D0F4B7F
:102EA000D7F80411D7F8180116F0EEFCC7F808019E
:102EB000D7F808213B1D11461846FFF73DFEC7F81D
:102EC0000C01D7F80C31184607F58877BD46BDE8E8
:102ED000804004B0704700BF3C2302205B94013067
:102EE00080B48DB000AF0346FB7100237B620023EA
:102EF000BB62314A07F1140307CA83E807002E4A70
:102F000007F1080307CA83E80700FB79012B01D802
:102F100000234BE0FB79022B02D0FB79032B03D17A
:102F2000FB79023BFB7112E0FB79062B02D0FB79A7
:102F3000072B03D1FB79063BFB7108E0FB790A2BD9
:102F400002D0FB790B2B02D1FB790A3BFB710023EA
:102F5000FB6218E0FB6A9B0030333B4453F81C3C97
:102F6000002B0DD0BA6A531CBB62FB6A9B00303346
:102F70003B4453F81C1C930030333B4443F8281C5B
:102F8000FB6A0133FB62FB6A022BE3D9FB79BA6A65
:102F90009A4201D2002309E0FB799B0030333B4485
:102FA00053F8283C3B623B6A7B627B6A18463437A5
:102FB000BD465DF8047B7047E022023080B586B0E4
:102FC00000AF0346B9607A60FB73FB7B1846FFF7DE
:102FD00087FF78617B69002B01D1012341E07B6988
:102FE0001F22C3F830217B691B6B43F480427B694D
:102FF0001A637B691B6B43F400427B691A637B692C
:1030000000221A60FB7B0A2B08D0FB7B0B2B05D020
:10301000FB7B062B02D0FB7B072B07D17B694FF490
:1030200000225A637B694FF480125A637B68002B3D
:1030300016D07B691A690D4B13407A68127802F03A
:103040000F017A685278120402F4702211437A68F0
:103050009278120202F470620A431A437B691A6181
:10306000002318461837BD4680BD00BFF0F0F0FFC2
:1030700080B588B000AF78600B46FB701346BB701C
:10308000FB785A00BB781344BB610023BB6000236C
:10309000FB607A68BB6904339B0013445B6823F0D0
:1030A0001F03FB61A2E0BB68002B0CD1FB699B688E
:1030B0007B617A69524B1340FA69928BC2F30B021F
:1030C00092B21343BB60FB695B68DBB25BB2002B5F
:1030D00003DA4FF0FF33FB600DE0FB69DB69C3F3FC
:1030E00012331A46FB695B68C3F30E439BB2D21AD4
:1030F000FB681344FB607A68BB6904339B0013448C
:103100005A687968BB690C339B000B445B689A4230
:103110001CD17A68BB6904339B00134400225A60B7
:103120007A68BB690C339B00134400225A607B68A9
:103130009A68BB699B01134401229A607B689A6874
:10314000BB699B0113440022DA600DE07A68BB6919
:1031500004339B0013445B681B6819467A68BB699B
:1031600004339B0013445960FB695B68C3F3C033AD
:10317000DBB2002B09D17A68BB6904339B0013448E
:103180005B6823F01F03002B14D1BB78DB01DAB29C
:10319000FB781343DBB23B7400237B747B681B68B2
:1031A00007F108021146184617F0BBFD0023BB606B
:1031B0000023FB60FB6900225A607B681B691A468A
:1031C000FB691A607B68FA691A617B6893F854306E
:1031D0000133DAB27B6883F854207A68BB69043320
:1031E0009B0013445B6823F01F03FB61FB69002B0A
:1031F0007FF459AF00BF00BF2037BD4680BD00BF80
:1032000000F0FFFF80B58CB000AF78607B685B6832
:10321000D3F8AC317B627B6A002B50D0002387F857
:103220002B3048E097F82B307A6A22FA03F303F048
:103230000103002B3AD07B689A6897F82B305B002B
:10324000DBB29B01134430333B623B6AFB61FB6999
:103250001B78DB0987F82A3097F82A2097F82B305B
:1032600019467868FFF704FF97F82A3083F00103C6
:10327000DAB297F82B3019467868FFF7F9FE97F81D
:103280002B303B74FB69BB600823FB6001237B741C
:1032900097F82B301946786816F026FF7B681B6874
:1032A00007F108021146184617F03BFD97F82B303E
:1032B000013387F82B3097F82B30032BB2D97B687A
:1032C0005B68D3F8BC317B627B685B687A6AC3F861
:1032D000BC217B6A002B00F0A681002387F82930EF
:1032E0009CE197F829307A6A22FA03F303F001038C
:1032F000002B00F08E8197F829300F2B08D997F812
:103300002930103B87F82B30012387F82A3006E05C
:1033100097F8293087F82B30002387F82A3097F860
:103320002B30032B00F2728197F82B305B00DAB25E
:1033300097F82A301344FB760023BB600023FB6020
:1033400097F82B30002B23D197F82A30012B1FD16F
:103350007B689A68FB7E9B01134493F8383003F036
:103360000203DBB2002B13D07B689A68FB7E9B01C3
:1033700013441B68C3F34073DBB2002B08D17B6896
:103380009A68FB7E9B011A44136843F00053136054
:10339000FB7E7A6804339B0013445B6823F01F03B1
:1033A000FB622EE1002387F82830FB7E7A68043325
:1033B0009B0013445B6823F01F03FB6222E0FB6A5F
:1033C0005B68DBB25BB2002B06DBFB6A5B68C3F3B6
:1033D000C033DBB2002B10D0FB6A5B68DBB25BB2A0
:1033E000002B13DBFB6A5B68C3F3C033DBB2002B3B
:1033F0000CD0012387F8283008E0FB6A1B6823F013
:103400001F03FB62FB6A002BD9D100E000BF97F8D5
:103410002830002B03D1FB6A002B40F0F980FB7EA3
:103420007A6804339B0013445B6823F01F03FB623C
:10343000E3E0FB6A5B68DBB25BB2002B00DAE0E042
:10344000BB68002B0AD1FB6A9A68794B1340FA6A71
:10345000928BC2F30B0292B21343BB60FB6ADB692F
:10346000C3F312331A46FB6A5B68C3F30E439BB285
:10347000D21AFB681344FB60FB7E7A6804339B001E
:1034800013445A68FB7E79680C339B000B445B68DD
:103490009A421CD1FB7E7A6804339B0013440022BD
:1034A0005A60FB7E7A680C339B00134400225A60FA
:1034B0007B689A68FB7E9B01134401229A607B68BB
:1034C0009A68FB7E9B0113440022DA600DE0FB7ECC
:1034D0007A6804339B0013445B681A68FB7E1146CC
:1034E0007A6804339B0013445960FB6A5B68C3F33A
:1034F000C033DBB2002B09D1FB7E7A6804339B001A
:1035000013445B6823F01F03002B16D197F82A3071
:10351000DB01DAB297F82B301343DBB23B740023A4
:103520007B747B681B6807F108021146184617F088
:10353000F8FB0023BB600023FB60FB6A00225A609B
:103540007B681B691A46FB6A1A607B68FA6A1A6113
:103550007B6893F854300133DAB27B6883F85420E7
:10356000FB7E7A6804339B0013445B6823F01F03DF
:10357000FB62FB6A002B40D0FB6A5B68DBB25BB28C
:10358000002B3ADA97F82B2097F82A301B011344C6
:10359000012202FA03F37B617B685B687A69C3F8F6
:1035A000B0217B685B68D3F8B8217B691340002B9E
:1035B00023D100BF7B685B68D3F8B0217B691340DF
:1035C000002BF7D17B685B68D3F8B8217B69134087
:1035D000002B12D17B689A68FB7E9B011344FA6A28
:1035E0009A607B689A68FB7E9B0113440022DA6034
:1035F0007B685B687A69C3F8B021FB6A002B7FF4B3
:1036000018AFFB6A002B7FF4CDAE02E000BF00E0F4
:1036100000BF97F82930013387F8293097F829300F
:103620001F2B7FF65EAE00BF3037BD4680BD00BFAA
:1036300000F0FFFF80B592B000AFF8607A603B60A9
:103640000B46FB72FB7A5B0003F01E03FA7AD20989
:10365000D2B21343BB62FB7A03F00F02FB7ADB08A2
:1036600003F010031343012202FA03F37B627B6A27
:103670003B640023BB633A6843F6FF7313449B0B20
:103680007B63002387F83330012387F8323000232F
:10369000FB62FB68002B01D103239FE1FB689A6862
:1036A000BB6A9B01134493F8383003F00103DBB28B
:1036B000002B01D1012391E1FB6893F85630002BD8
:1036C00001D001238AE17B6B002B01D101237B63B5
:1036D00007F1100318461DF0A0FFFB6893F8543063
:1036E0001A467B6B934205D93B6918461DF0B5FF1E
:1036F000022373E13B68B3F5804F03D94FF4804355
:10370000FB6301E03B68FB633A68FB6BD31A3B60E9
:10371000FB681B693B623B6A1B681A46FB681A61BF
:10372000FB6893F85430013BDAB2FB6883F854200D
:10373000BB6B002B01D13B6A7B643B6A01221A60A0
:103740003B6A00225A607A68BB6B13441A463B6A94
:103750009A603B6A9B6803F58052A24B13403A6A19
:10376000D3603B6ADB6803F580523B6A1A613B6AAF
:103770001B6903F580523B6A5A613B6A5B6903F53A
:1037800080523B6A9A61FB6BC3F30E0399B23A6AAB
:10379000536861F31E435360FB6BC3F312013A6A33
:1037A000D36961F31E33D3613B6A9B68C3F30B0398
:1037B00099B23A6A938B61F30B0393833A6AD37F8E
:1037C0006FF3C713D3773B68002B04D13A6A536871
:1037D00043F4004353603A6A5368802161F307035E
:1037E0005360BA6BFB6B1344BB63FA68BB6A0C3360
:1037F0009B0013445B68002B0FD0FA68BB6A0C3344
:103800009B0013445B683A6A1A60FA68BB6A0C331F
:103810009B0013443A6A5A6010E0FA68BB6A0433AA
:103820009B0013443A6A5A60FA68BB6A0C339B00E7
:1038300013443A6A5A60012387F833303B68002BFF
:103840007FF458AFFB7A03F00F03002B43D1FB7AD0
:10385000DB09DBB2012B3ED1FB7A03F00F03DBB2B5
:103860005B00FB77FB689A68FB7F9B011344303356
:10387000BB61BB697B61FB689A68BB6A9B011344AF
:1038800093F8383003F00203DBB2002B23D0FB6B3C
:10389000002B20D07B69DB881A46FB6B93421AD23F
:1038A000FB689A68BB6A9B0113441B68C3F30A4315
:1038B0009BB21A46FB6BB3FBF2F101FB02F29B1ABF
:1038C000002B08D1FB689A68BB6A9B011A441368F5
:1038D0006FF35D73136097F83330002B35D1FB68BD
:1038E0005B68D3F8B0217B6A1340002B1FD03B6983
:1038F00018461DF0B2FE002370E0FB685B68D3F849
:103900004021FB685B6842F48042C3F84021FB68B9
:103910005B68D3F8B8313B64FB685B68D3F840312F
:1039200003F48043002B02D0002387F8323097F84D
:103930003230002BE1D1FB685B68D3F84021FB6893
:103940005B6822F48042C3F8402197F83330002BA3
:1039500004D13A6C7B6A1340002B3AD1FB689A6819
:10396000BB6A9B0113447A6C9A60FB689A68BB6AD5
:103970009B0113440022DA60BFF34F8F00BFFB6846
:103980005B687A6AC3F8B02119E0FB6A0133FB6215
:10399000FB6A154A934205D13B6918461DF05DFE4E
:1039A00001231BE0FB685B68D3F8BC217B6A1340F2
:1039B000002B0DD1FB685B687A6AC3F8B021FB6805
:1039C0005B68D3F8B8217B6A1340002BDDD000E0A0
:1039D00000BF3B6918461DF040FE002318464837DB
:1039E000BD4680BD00F0FFFF8096980080B485B092
:1039F00000AF78600023FB7315E0FB7B0F4AD35CBC
:103A0000002B0DD1FB7B0D4A0121D1547B68FA7B41
:103A10001A70FB7B5C2202FB03F3094A134406E0A5
:103A2000FB7B0133FB73FB7B002BE6D000231846A6
:103A30001437BD465DF8047B704700BF9C2302200D
:103A40004023022080B58AB000AF0346B9607A6097
:103A5000FB7300237B623F4A07F1180392E80300DF
:103A600083E80300FB7B012B03D9FB7B023B012B8B
:103A700001D9062369E007F117031846FFF7B6FFDF
:103A800078627B6A002B01D103235EE0FB7D5B0241
:103A9000314A1A447B6ADA60FB7DDB022F4A134409
:103AA0003B627B6A3A6A9A607B6AFA7B83F85720AA
:103AB000FB7B023B9B0028333B4453F8103C1A46E7
:103AC0007B6A5A607B6A5B68D3F840217B6A5B68DB
:103AD00042F00202C3F8402100BF7B6A5B68D3F862
:103AE000403103F00203002BF7D17B6A5B68D3F807
:103AF0002431DBB203F01F03DAB27B6A83F855206E
:103B00007B6A93F85530032B01D801231DE07B6AB3
:103B1000BA681A607B6A5B68D3F8A8217B6A5B6825
:103B200022F00302C3F8A8217B6A5B68D3F8A821BE
:103B30007B6A5B6842F00202C3F8A821786A15F03C
:103B4000EBFF7B687A6A1A60002318462837BD4667
:103B500080BD00BFEC2202300014002000100020C5
:103B600080B485B000AF78607B68BB607B68002B59
:103B700001D103232FE00023FB730FE0FB7B5C22CA
:103B800002FB03F3174A1344BA689A4203D1FB7B42
:103B9000154A0021D154FB7B0133FB73FB7B002BC7
:103BA000ECD0BB685B680022C3F84821BB685B6847
:103BB000D3F84021BB685B6822F00102C3F84021C2
:103BC000BB685B68D3F84021BB685B6842F00202C7
:103BD000C3F84021002318461437BD465DF8047B26
:103BE000704700BF402302209C23022080B58CB088
:103BF00000AF78600B46FB707B687B62FB7803F05C
:103C00000F02FB78DB0803F010031343012202FAD2
:103C100003F33B62FB785B00DBB203F01E03DAB216
:103C2000FB78DB09DBB21343FB77002387F82B30EB
:103C30007B68002B01D10323EAE007F10C0318464F
:103C40001DF0EBFC00233B614FF0FF337B61FB7FFA
:103C50007A6A04339B0013445B6823F01F03FB6202
:103C600009E0FA6AD37F43F08003D377FB6A1B68CD
:103C700023F01F03FB62FB6A002BF2D1FB7F7A6A01
:103C800004339B0013445B6823F01F03FB6291E045
:103C9000FB6ADB7F23F07F03DBB2002B00F08F8019
:103CA000FB6A5B68DBB25BB2002B1ADA7B6A5B688B
:103CB000D3F8B4117B6A5B683A6A0A43C3F8B4214B
:103CC00000BF7B6A5B68D3F8B4213B6A1340002BCA
:103CD000F7D17B6A5B68D3F8B8213B6A1340002BAD
:103CE000E4D13B69002B0AD1FB6A9A684A4B134026
:103CF000FA6A928BC2F30B0292B213433B61FB7FD1
:103D00007A6A04339B0013445A68FB7F796A0C3348
:103D10009B000B445B689A420ED1FB7F7A6A0433A6
:103D20009B00134400225A60FB7F7A6A0C339B008D
:103D3000134400225A600DE0FB7F7A6A04339B0033
:103D400013445B681A68FB7F11467A6A04339B0050
:103D500013445960FB6A5B68C3F3C033DBB2002BCA
:103D600009D1FB7F7A6A04339B0013445B6823F01C
:103D70001F03002B02D1012387F82B30FB6A00229E
:103D80005A607B6A1B691A46FB6A1A607B6AFA6A88
:103D90001A617B6A93F854300133DAB27B6A83F894
:103DA0005420FB7F7A6A04339B0013445B6823F042
:103DB0001F03FB62FB6A002B7FF46AAF00E000BFC9
:103DC000FB6A002B0DD17B6A9A68FB7F9B01134431
:103DD00001229A607B6A9A68FB7F9B011344002250
:103DE000DA60FB6818461DF038FC97F82B30002B82
:103DF0000DD0FB783B7600237B767B6A1B6807F14E
:103E000010021146184616F08CFF00233B61002378
:103E100018463037BD4680BD00F0FFFF80B58AB040
:103E200000AFF8600B467A60FB72FB683B620123CF
:103E300087F82730FB68002B01D1032336E1FB7A9A
:103E4000142B00F2208101A252F823F0A13E003091
:103E5000BD3E0030D93E0030F13E0030113F003011
:103E6000313F0030513F00306B3F00301D4000308B
:103E70008740003087400030874000308740003066
:103E800087400030254000306B40003087400030D4
:103E9000874000308740003087400030F93F0030D5
:103EA0003B6A5B68D3F840213B6A5B6842F00102E1
:103EB000C3F84021002387F82730F5E03B6A5B68B0
:103EC000D3F840213B6A5B6822F00102C3F840212D
:103ED000002387F82730E7E07B68002B00F0D580CF
:103EE0007968386A15F0B1FE034687F82730CCE0D0
:103EF0007B68002B00F0CB807B68FB61FB691B7843
:103F00001946386A15F0A3FF034687F82730BEE04C
:103F10007B68002B00F0BD807B68FB61FB691B7830
:103F20001946386A16F00EF8034687F82730B0E0D5
:103F30007B68002B00F0AF807B68FB61FB691B781E
:103F40001946386A16F073F8034687F82730A2E05E
:103F50007B68002B00F0A1807B683B613B690122FC
:103F60001A80002387F8273097E07B68002B00F049
:103F700096807B68BB61BB691B7803F00F03FB7500
:103F8000BB691B78DB09BB75FB7D032B00F28780C7
:103F9000FB7D002B18D03B6A5A68FB7D013B7033D8
:103FA0009B0013445B68BA7D002A02D04FF4803234
:103FB00000E001221340002B14BF01230023DBB2D9
:103FC0009AB2BB695A8013E03B6A5B68D3F8C03190
:103FD000BA7D002A02D04FF4803200E00122134063
:103FE000002B14BF01230023DBB29AB2BB695A80B5
:103FF000002387F8273052E07B68002B51D07B6884
:10400000FB61FB691B785A063B6A5B6842F0807271
:10401000C3F85421002387F8273042E0002387F8B3
:10402000273041E0002387F8263013E097F8263048
:1040300063F07F03DBB21946386A15F008FF97F882
:1040400026301946386A15F002FF97F826300133FA
:1040500087F8263097F82630032BE7D9386A15F011
:104060005BFD002387F827301EE07B68002B1AD009
:104070007B68FB613B6A93F85820FB691A70002348
:1040800087F827300FE000BF0EE000BF0CE000BF54
:104090000AE000BF08E000BF06E000BF04E000BF88
:1040A00002E000BF00E000BF97F82730184628372D
:1040B000BD4680BD90B5A7B002AFF860B9607A6028
:1040C0000023BB6700237B67052387F88F3000231D
:1040D00087F87330BB685B68B3F1FF3F02D07B6841
:1040E000002B02D197F88F30A0E17B68C7F88830A9
:1040F000D7F888309B68C7F88430D7F88430C7F881
:10410000803007F173031A460621F86800F058FA68
:10411000BB681B7A002B00F01581BB685B68082B1D
:1041200003D1BB681B68002B02D197F88F307DE16B
:10413000BB681B68C7F88430D7F88430FB67FB6F17
:104140005A88D7F880305A80FB6F9A88D7F8803029
:104150009A80FB6FDA88D7F88030DA80FB6F5A7864
:10416000D7F880305A70FB6F1A78D7F880301A7001
:10417000D7F880301B7803F06003002B23D1D7F8E9
:1041800080305B780C2B00F2CB80D7F880305B78E6
:104190001A46A84B53F82230002B00F0C180D7F804
:1041A00080305B781A46A34B53F8224007F1740322
:1041B00007F17802D7F88010D7F88800A0470346A7
:1041C00087F88F30ACE0D7F88030DB88002B64D0E4
:1041D000D7F880301B785BB2002B5EDBD7F88030DD
:1041E000DB88002B21D0D7F880301B7803F0200328
:1041F000002B1AD000237B66012387F86C30D7F898
:1042000080303B66D7F88030DB88BB6607F16003FF
:104210001A460121F86801F027FF034687F88F301E
:10422000BB6E7B677B6EBB6725E0D7F88030DB8891
:10423000002B20D0D7F880301B7803F04003002BF0
:1042400019D000237B65012387F85C30D7F88030D4
:104250003B65D7F88030DB88BB6507F150031A4611
:104260001321F86818F0F8F8034687F88F30BB6D13
:104270007B677B6DBB6797F88F30002B50D1BA6F8F
:10428000D7F88030DB880021F86816F0B1FE0346CD
:1042900087F88F3097F88F30C8E0D7F880301B78D8
:1042A00003F02003002B1AD000237B64012387F83E
:1042B0004C30D7F880303B64D7F88030DB88BB6463
:1042C00007F140031A460121F86801F0CDFE0346CC
:1042D00087F88F30BB6C7B677B6CBB6720E0D7F8BF
:1042E00080301B7803F04003002B19D000237B6340
:1042F000012387F83C30D7F880303B63D7F8803013
:10430000DB88BB6307F130031A461321F86818F005
:10431000A3F8034687F88F30BB6B7B677B6BBB676B
:1043200097F88F2007F17403019307F17803009346
:104330000023D7F88010F86816F0F2FA034687F8E1
:104340008F3071E097F87330032B13D1D7F880309A
:104350005B781A46374B53F8224007F1740307F194
:104360007802D7F88010D7F88800A047034687F86E
:104370008F3059E0BB685B68002B55D0D7F8803090
:10438000DB88002B50D0D7F880301B785BB2002B35
:104390004ADBD7F880301B7803F02003002B16D0BF
:1043A000BB681B687B62002387F82C30D7F880300D
:1043B0003B62BB685B68BB6207F120031A460121C0
:1043C000F86801F051FE034687F88F301BE0D7F8FC
:1043D00080301B7803F04003002B14D0BB681B68AF
:1043E0007B6100233B77D7F880303B61BB685B681B
:1043F000BB6107F110031A461321F86818F02CF876
:10440000034687F88F3097F88F2007F174030193E4
:1044100007F1780300930123D7F88010F86816F0AD
:104420007FFA034687F88F3097F88F301846943715
:10443000BD4690BDF422023080B588B000AF7860F0
:1044400039601B4BFB603B683B6101233B770023DA
:10445000FB7600237B778023BB7640233B8307F1E9
:104460000C0207F118031946786816F0FAFD0346A6
:10447000FB77FB7F002B01D0FB7F15E00023BB7691
:1044800007F10C0207F118031946786816F0E9FDE8
:104490000346FB77FB7F002B05D08021786816F060
:1044A0003FFEFB7F00E0002318462037BD4680BD5D
:1044B000B540003080B584B000AF03463960FB7171
:1044C00007F1080318461DF0A8F80023FB601EE062
:1044D0002B49FA6813465B019B1A9B000B441B682F
:1044E000002B11D02649FA6813465B019B1A9B00EA
:1044F0000B4475331B78FA799A4205D1BB6818468C
:104500001DF0ABF8012336E0FB680133FB60FB686C
:10451000002BDDD00023FB6025E01949FA68134623
:104520005B019B1A9B000B441B68002B18D114499C
:10453000FA6813465B019B1A9B000B447533FA79AA
:104540001A70FA6813465B019B1A9B000C4A1A44C6
:104550003B681A60BB6818461DF07FF800230AE02C
:10456000FB680133FB60FB68002BD6D0BB681846A4
:104570001DF073F8022318461037BD4680BD00BFFA
:10458000CC20002080B485B000AF03463960FB71B9
:104590000623FB73FB79BB73BB7B022B02D0BB7B77
:1045A000032B04D13B68054A1A600023FB73FB7B95
:1045B00018461437BD465DF8047B70472823023047
:1045C00080B586B000AFF8600B467A60FB720123BD
:1045D000FB757B68002B01D1042353E0FB7A023B7F
:1045E000062B4DD801A252F823F000BF0946003037
:1045F00019460030514600306146003029460030EF
:104600003D460030714600307A680F21F86816F098
:104610007DFA0346FB7534E07A681021F86816F0DD
:1046200075FA0346FB752CE07B683B610023FB7544
:10463000FB6893F876203B691A7022E07B683B6147
:104640000023FB75FB6893F874203B691A7018E02F
:104650007A680621F86816F059FA0346FB7510E0EF
:104660007A680721F86816F051FA0346FB7508E0EE
:104670007A680921F86816F049FA0346FB7500E0EC
:1046800000BFFB7D18461837BD4680BD80B586B09B
:1046900000AFF8600B467A60FB720123FB75FB7A72
:1046A000033B0B2B74D801A252F823F0DD460030F7
:1046B0009147003091470030ED460030034700300D
:1046C00091470030914700307147003081470030FA
:1046D0005147003091470030614700307A6811211E
:1046E000F86816F013FA0346FB7556E07B68002B5A
:1046F00050D00023FB757B681A78FB6883F876201E
:1047000048E0FB6893F87630032B17D07B68002BCA
:1047100042D00023FB757B681A78FB6883F874200D
:10472000FB68032283F87620FB6874331A46142151
:10473000F86816F0EBF90346FB752DE0FB6874335F
:104740001A460821F86816F0E1F90346FB7523E0E4
:104750007A680A21F86816F0D9F90346FB751CE05F
:104760007A680B21F86816F0D1F90346FB7514E05E
:104770007A680C21F86816F0C9F90346FB750CE05D
:104780007A680D21F86816F0C1F90346FB7504E05C
:1047900000BF02E000BF00E000BFFB7D18461837F5
:1047A000BD4680BD80B48BB000AF7860414B3B62AA
:1047B000414BFB61414BBB61414B7B61414B3B61D9
:1047C000414BFB6000237B6269E0404A7B6A982191
:1047D00001FB03F313441B68002B5DD17B6A9B0034
:1047E00028333B4453F8082C38497B6A982000FB57
:1047F00003F30B4418331A607B6A9B0028333B4455
:1048000053F80C2C31497B6A982000FB03F30B44CE
:104810001C331A607B6A9B0028333B4453F8102CEE
:104820002A497B6A982000FB03F30B4420331A606B
:104830007B6A9B0028333B4453F8142C23497B6A42
:10484000982000FB03F30B443C331A607B6A9B0007
:1048500028333B4453F8182C1C497B6A982000FBF2
:1048600003F30B4440331A607B6A9B0028333B44BC
:1048700053F81C2C15497B6A982000FB03F30B446A
:1048800050331A607B6A982202FB03F30F4A1A44E2
:104890007B681A60002306E07B6A01337B627B6AD7
:1048A000002B92D0022318462C37BD465DF8047BBE
:1048B000704700BF48210020682100207821002097
:1048C0008C21002094210020A0210020C421002060
:1048D00080B584B000AF78600023BB607B68203374
:1048E000BB607B689B69DB7B032B0BD0BB681B68C1
:1048F00000229A70BB681B6800221A73BB681B6891
:1049000000225A737B689B699A68BB685A607B680F
:104910009B691B7BDB09DAB2BB685A767B689B69B3
:10492000DB7BAA2B00F0E780AA2B00F32081A82BC9
:1049300000F0CF80A82B00F31A815A2B00F3C0801F
:10494000002BC0F214815A2B00F2118101A252F8FF
:1049500023F000BFEB4A00306F4B00306F4B00304C
:10496000DF4A00300F4B00306F4B00306F4B003090
:104970006F4B00306F4B00306F4B00306F4B00308F
:104980006F4B00306F4B00306F4B00306F4B00307F
:104990006F4B00306F4B00306F4B0030C74A003018
:1049A0006F4B00306F4B0030334B00306F4B00309B
:1049B0006F4B00306F4B00306F4B0030274B003097
:1049C000634B00306F4B00304B4B0030034B0030DB
:1049D0006F4B00306F4B00306F4B00306F4B00302F
:1049E0003F4B00306F4B00301B4B00306F4B0030A3
:1049F0006F4B0030D34A00306F4B0030F74A003025
:104A00006F4B00306F4B00306F4B00306F4B0030FE
:104A1000574B00306F4B00306F4B00306F4B003006
:104A20006F4B00306F4B00306F4B00306F4B0030DE
:104A30006F4B00306F4B00306F4B00306F4B0030CE
:104A40006F4B00306F4B00306F4B00306F4B0030BE
:104A50006F4B00306F4B00306F4B00306F4B0030AE
:104A60006F4B00306F4B00306F4B00306F4B00309E
:104A70006F4B00306F4B00306F4B00306F4B00308E
:104A80006F4B00306F4B00306F4B00306F4B00307E
:104A90006F4B00306F4B00306F4B00306F4B00306E
:104AA0006F4B00306F4B0030334B00306F4B00309A
:104AB0006F4B00306F4B00306F4B0030274B003096
:104AC0009E2B2AD053E0786817F04BF80346FB730F
:104AD00053E0786817F082F80346FB734DE078687E
:104AE00017F005F80346FB7347E0786817F078F98C
:104AF0000346FB7341E0786817F0F1F80346FB7357
:104B00003BE0786817F0CEFB0346FB7335E078682E
:104B100017F08CFB0346FB732FE0786817F041FA1F
:104B20000346FB7329E0786817F0B2F90346FB737C
:104B300023E0786817F0E9F90346FB731DE0786815
:104B400000F050FF0346FB7317E0786817F0E3FBB3
:104B50000346FB7311E0786817F07BF90346FB739B
:104B60000BE0786817F010FC0346FB7305E07868EB
:104B700017F048FC0346FB7300BFBB681B689B78BB
:104B8000002B0DD07B68DB691B7B002B08D17B6879
:104B90009B69DB7B032B03D07B68DB6901221A73E3
:104BA000FB7B18461037BD4680BD00BF80B590B076
:104BB00000AFF860B9607A607B687B63012387F897
:104BC0003B30BB685B68B3F1FF3F4BD17B6B93F825
:104BD0008530002B22D07B6B5B681B68002B1DD0BF
:104BE0007B6B9B69DB7B282B04D07B6B9B69DB7B1E
:104BF000A82B13D100237B62BB681B68BB62002318
:104C00003B627B6B9B695B7B87F82C307B6B5B68C3
:104C10001B6807F120020121786B98477B6B93F8A2
:104C20009630012B1BD17B6B002283F896207B6B87
:104C3000DA697B6BDB6992689A607B6B18687B6BC7
:104C400093F891107B6BDA690D2316F0B8F97B6B42
:104C5000012283F88E207B6B002283F88F2097F847
:104C60003B30BAE07B6BDA68BB685B689A4206D37C
:104C70007B6BDA68BB685B68D21A7B6BDA607B6B34
:104C800093F88B30012B17D17B6B002283F88B209C
:104C90007B6B012283F886207B6B002283F88520C2
:104CA0007B6B1A687B6B93F891301946104616F0AF
:104CB000A7FA97F83B3090E07B6B93F88530002B98
:104CC00008D1BB685B680D2B04D1BB681B683B63D4
:104CD0003B6BFB637B6B93F88530002B5CD07B6B6D
:104CE0005B681B68002B76D0BB685B687B61BB6828
:104CF0001B68BB617B6B1B693B617B6B9B695B7B4F
:104D00003B777B6B9B69DB7B282B04D07B6B9B69A0
:104D1000DB7BA82B07D17B6B5B681B6807F110025C
:104D20000121786B98477B6BDB68002B17D07B6B7E
:104D30001A69BB6859687B6B9B695B7B786B053331
:104D40001B01034408331B68B1FBF3F31A447B6B6C
:104D50001A61786B16F078FB034687F83B307B6B63
:104D6000DB68002B37D17B6B002283F885207B6BBF
:104D7000012283F88E207B6BDA697B6BDB6992689A
:104D80009A607B6B18687B6B93F891107B6BDA6988
:104D90000D2316F014F91EE0BB685B680D2B1AD1C9
:104DA000FB6B1B680F4A934215D17B6B012283F882
:104DB00088207B6B002283F88E207B6B18687B6BCE
:104DC00093F892107B6B9A691F2316F011F97B6B95
:104DD000012283F88D2097F83B3018464037BD46B6
:104DE00080BD00BF5553425380B58EB000AFF86010
:104DF000B9607A607B683B63002387F83730BB6813
:104E00005B68B3F1FF3F47D13B6B93F88430002BD5
:104E100022D03B6B5B681B68002B1DD03B6B9B69F2
:104E2000DB7B2A2B04D03B6B9B69DB7BAA2B13D14A
:104E300000237B62BB681B68BB6200233B623B6B49
:104E40009B695B7B87F82C303B6B5B681B6807F1C9
:104E500020020221386B98473B6B93F88D30002B72
:104E600017D13B6B93F88630002B12D13B6B93F834
:104E70008730002B0DD13B6B18683B6B93F8921079
:104E80003B6B9A691F2316F0B3F83B6B012283F842
:104E90008D2097F83730B5E13B6BDA68BB685B680B
:104EA0009A4206D33B6BDA68BB685B68D21A3B6BED
:104EB000DA603B6B9B69DB7B552B04D03B6B9B69BA
:104EC000DB7B152B0BD13B6B5B681B68002B06D083
:104ED0003B6B5B681B6800220B21386B98473B6B70
:104EE00093F88C30012B1BD13B6B002283F88C2074
:104EF0003B6B012283F887203B6B002283F88420E0
:104F00003B6B002283F88D203B6B1A683B6B93F858
:104F100092301946104616F073F997F8373071E160
:104F20003B6B93F88430002B5DD0BB685B687B6182
:104F3000BB681B68BB613B6B1B693B613B6B9B693F
:104F40005B7B3B773B6B5B681B68002B2DD03B6B1F
:104F50009B69DB7B2A2B04D03B6B9B69DB7BAA2BF9
:104F600007D13B6B5B681B6807F110020221386BAD
:104F700098473B6BDB68002B17D03B6B1A69BB680B
:104F800059683B6B9B695B7B386B05331B010344A2
:104F900008331B68B1FBF3F31A443B6B1A61386B9F
:104FA00016F0B5FA034687F837303B6BDB68002B09
:104FB00040F026813B6B002283F884203B6BDA694A
:104FC0003B6BDB6992689A603B6B18683B6B93F8AC
:104FD00091103B6BDA690D2315F0F1FF3B6B012259
:104FE00083F88E200CE13B6B93F88830002B00F0A7
:104FF000DB80BB685B681F2B40F0D6803B6B9B69F6
:105000001B68824A934240F0CF803B6B9B695B7B7D
:1050100003F0F003002B40F0C7803B6B9B699B7B48
:1050200003F0E003002B40F0BF803B6B9B695B7B90
:105030001A463B6B93F8903001339A4280F0B4806B
:105040003B6B9B699B7B002B00F0AE803B6B9B69AD
:105050009B7B102B00F2A8803B6B002283F88D20F5
:105060003B6B0022DA603B6BDB69694A1A603B6B81
:10507000DB6900229A603B6B9A693B6BDB69526883
:105080005A603B6B002283F888203B6B9A693B6B2C
:105090009B6992689A603B6B9B691B7B5BB2002BA0
:1050A00006DB3B6B9B699B68002B01D0012200E073
:1050B00000223B6B83F884203B6B9B691B7B5BB2BC
:1050C000002B06DA3B6B9B699B68002B01D0012209
:1050D00000E000223B6B83F885203B6B93F8853022
:1050E000002B0AD03B6B93F88630002B05D00123B0
:1050F00087F8373097F8373084E0386BFFF7E8FBF4
:10510000034687F8373097F83730052B28D13B6BAB
:1051100093F88430012B0DD13B6B93F88730002B33
:1051200003D13B6B012283F88C203B6B002283F878
:10513000842011E03B6B93F88530012B0CD13B6B45
:1051400093F88630002B03D13B6B012283F88B2030
:105150003B6B002283F885203B6B022283F88F2073
:105160003B6B93F88430002B49D13B6B93F885302F
:10517000002B44D13B6B93F88B30002B3FD13B6B22
:10518000DA693B6BDB6992689A603B6B18683B6B32
:1051900093F891103B6BDA690D2315F010FF3B6B10
:1051A000012283F88E202AE03B6B1A683B6B93F850
:1051B00092301946104616F023F83B6B1A683B6B89
:1051C00093F891301946104616F01AF83B6B0022FE
:1051D00083F88D203B6B002283F888203B6B0122F3
:1051E00083F887203B6B012283F886203B6B0122EA
:1051F00083F88F203B6B012283F8892000E000BFF9
:1052000097F8373018463837BD4680BD555342436E
:105210005553425380B58CB000AF78600023FB62D9
:10522000012387F82B307B6893F89430002B08D04B
:105230007B6893F894207B685B689B685B799A42F3
:1052400002D997F82B30FDE07B685B689B681B6890
:10525000002B02D197F82B30F4E07B685B689B68E9
:105260001A687B6893F8943019466FF060430B44DA
:10527000DB001344FB6100237B624DE0FB6959684E
:105280007A6A13465B0013449B000B441B78082B7F
:105290003FD100233B6222E0FB6959687A6A1346DA
:1052A0005B0013449B000B445A683B6A1B01134488
:1052B0001A787B6893F893309A420DD1FB6959684C
:1052C0007A6A13465B0013449B000B445A683B6A9E
:1052D0001B011344FB620FE03B6A01333B62FB6935
:1052E00059687A6A13465B0013449B000B441B7A8F
:1052F0001A463B6A9342CFD3FB6959687A6A1346D0
:105300005B0013449B000B44DA787B6883F895209C
:1053100008E07B6A01337B62FB691B781A467B6A73
:105320009342ABD3FB6A002B02D197F82B3089E074
:105330007B68FA6A9A6000237B624CE000233B762C
:10534000FB6A99687A6A13465B0013445B000B445E
:105350001B797B76FB6A99687A6A13465B00134473
:105360005B000B441B78BB75FB6A99687A6A13462D
:105370005B0013445B000B445B88BB82FB6A99684B
:105380007A6A13465B0013445B000B445B78FB7541
:10539000BB7DDB09DBB2012B06D1BA7D7B6883F8CC
:1053A00091202A4BBB6005E0BA7D7B6883F8922090
:1053B000274BBB607B68FB607B681B6807F10802BA
:1053C00007F11401184615F04CFE034687F82B3000
:1053D0007B6A01337B62FB6A1B791A467B6A9342C4
:1053E000ACD37B68002283F884207B68002283F89A
:1053F00085207B68002283F887207B68002283F861
:1054000086207B68002283F88C207B68002283F84A
:105410008B207B68012283F888207B680022DA6079
:105420007B68002283F889207B68002283F88A2029
:105430007B68002283F88F207B68002283F8962007
:1054400097F82B3018463037BD4680BDAD4B003045
:10545000E94D003090B599B000AFF860B9607A605E
:10546000012387F85F300023BB65BB6887F857309E
:105470007B68002B02D0FB68002B01D10323ADE237
:10548000FB683B6597F85730013B052B00F28F8294
:1054900001A252F823F000BFD5580030B1540030BB
:1054A000AD55003027560030AF5600304957003018
:1054B0003B6D002283F894203B6D5B681B6807F10D
:1054C00010020521386D9847034687F85F303B6925
:1054D000002B02D100233B6106E03B69DBB2013BBC
:1054E000DAB23B6D83F890203B69002B03D1042393
:1054F00087F85F3070E2002387F85E302BE097F882
:105500005E301B0160333B44483B1B68002B08D0D6
:1055100097F85E301B0160333B444C3B1B68002B0B
:1055200003D1012387F85F3010E097F85E3097F8D9
:105530005E20396D053212010A441B0160333B4481
:10554000503B141D04330FCB84E80F0097F85E30F6
:10555000013387F85E303B6D93F8903097F85E200A
:105560009A4203D897F85E30022BC8D93B6D20339E
:10557000BB65BB6D1B6870221A70BB6D1B680A226D
:10558000DA71BB6D1B6800229A70BB6D1B6800222C
:105590001A73BB6D1B6800225A733B6D002283F89F
:1055A0008D203B6D002283F88E2015E27B68FB6422
:1055B0003B6D5B68002B00F0FC81FB6C1A783B6D47
:1055C00093F894309A4200F0F6813B6D93F8943052
:1055D000002B05D0386D15F083FE034687F85F3049
:1055E000FB6C1A783B6D83F894203B6D002283F8A6
:1055F0009320386DFFF70EFE034687F85F3097F86B
:105600005F30002B40F0D9813B6D18683B6D93F8FB
:1056100092103B6D9A691F2315F0EAFC3B6D012245
:1056200083F88D20C9E13B6D5B68002B00F0C781DA
:105630007B681B88A7F84A30B7F84A3087F84930AA
:105640003B6D93F89520B7F84A301B0A9BB2DBB24A
:105650009A4240F0B6813B6D93F8933097F8492019
:105660009A4200F0B081386D15F03AFE034687F893
:105670005F30386DFFF7CEFD034687F85F3097F84F
:105680005F30002B0DD13B6D18683B6D93F8921085
:105690003B6D9A691F2315F0ABFC3B6D012283F82B
:1056A0008D203B6D97F8492083F8932094E13B6D62
:1056B0005B68002B00F089813B6D9B68002B00F03C
:1056C00084817B68FB643B6D93F88630002B19D195
:1056D000FB6C1A783B6D93F891309A4212D13B6D76
:1056E000012283F886203B6D002283F88E203B6DDB
:1056F0001A68FB6C1B781946104615F081FD0346AD
:1057000087F85F303B6D93F88730002B40F05F8166
:10571000FB6C1A783B6D93F892309A4240F05781B7
:105720003B6D012283F887203B6D002283F88D209A
:105730003B6D1A68FB6C1B781946104615F060FD2E
:10574000034687F85F3042E13B6D5B68002B00F059
:105750003C813B6D9B68002B00F037813B6D93F8DB
:105760008930012B00F031817B68FB643B6D93F83D
:105770008630012B19D1FB6C1A783B6D93F8913070
:105780009A4212D13B6D002283F886203B6D0022A5
:1057900083F88E203B6D1A68FB6C1B781946104607
:1057A00015F046FD034687F85F303B6D93F8873070
:1057B000012B19D1FB6C1A783B6D93F892309A4209
:1057C00012D13B6D002283F887203B6D002283F8C5
:1057D0008D203B6D1A68FB6C1B781946104615F03E
:1057E00027FD034687F85F303B6D93F88F30032B1E
:1057F00004D03B6D93F88F30022B2FD13B6D93F883
:105800008A30012B2AD03B6D93F88E30012B0DD1BD
:105810003B6D012283F896203B6D1A683B6D93F82F
:1058200091301946104615F0F9FB13E03B6DDA692B
:105830003B6DDB6992689A603B6D18683B6D93F82D
:1058400091103B6DDA690D2315F0B9FB3B6D012218
:1058500083F88E203B6D002283F88F203B6D93F8F8
:105860008A30012B40F0B5803B6D93F88630002BD9
:1058700040F0AF803B6D93F88730002B40F0A9805B
:105880003B6D002283F88A203B6D93F88D30012B0D
:105890000DD13B6D002283F88D203B6D1A683B6D66
:1058A00093F892301946104615F0B8FB0DE03B6DA9
:1058B00018683B6D93F892103B6D9A691F2315F0A1
:1058C00097FB3B6D012283F88D203B6D002283F80E
:1058D0008F207EE07B687B647B6C1B681B7803F009
:1058E0001F03012B77D17B6C1B685B78FE2B02D0EA
:1058F000FF2B29D05AE07B6C1B689A883B6D93F88C
:1059000095309BB29A421BD17B6C1B685B88002B45
:1059100016D17B6C1B68DB88012B11D17B6C1B685B
:105920001B785BB2002B0BDA3B6D03F190027B6CB2
:105930005A607B6C1B68DB881A467B6C9A6035E08A
:10594000052387F85F3031E07B6C1B689A883B6DDC
:1059500093F895309BB29A4224D17B6C1B685B888C
:10596000002B1FD17B6C1B68DB88002B1AD17B6C52
:105970001B681B785BB2002B14DB3B6D012283F8A4
:1059800087203B6D012283F886203B6D012283F83E
:1059900088203B6D002283F889203B6D012283F82B
:1059A0008A2002E0052387F85F3000BF14E000BFC3
:1059B00012E000BF10E000BF0EE000BF0CE000BF2F
:1059C0000AE000BF08E000BF06E000BF04E000BF3F
:1059D00002E000BF00E000BF97F85F301846643770
:1059E000BD4690BD80B590B000AF786000237B636A
:1059F0000B2387F83330AF4B1B68BB60002387F85D
:105A00003B30002387F83A30002387F839307B6831
:105A100020337B637B689B695B7B87F8383097F822
:105A2000383087F8243000233B620023FB617B6819
:105A30005B681B68002B0AD07B685B681B6807F1FA
:105A40001C02112178689847034687F833307B6839
:105A500093F8903097F838209A4206D97B6B1B68F0
:105A600005229A70002387F838303B6A002B14D047
:105A7000FB69002B11D097F83830FA697968053343
:105A80001B010B4404331A6097F838303A6A79687E
:105A900005331B010B4408331A607B689B699B7DAF
:105AA0001B021AB27B689B69DB7D1BB213431BB2DE
:105AB0003B867B6B93F82C30002B07D07B685B69AF
:105AC000002B01D0022302E0032300E0002387F82B
:105AD0002F307B689B695B7B7A6805331B0113441D
:105AE00004331B681A067B689B695B7B7968053306
:105AF0001B010B4404331B681B0203F47F031A438E
:105B00007B689B695B7B796805331B010B4404331D
:105B10001B681B0A03F47F431A437B689B695B7B0A
:105B2000796805331B010B4404331B681B0E1343B8
:105B3000FB607B689B695B7B7A6805331B011344C0
:105B400008331B681A067B689B695B7B79680533A1
:105B50001B010B4408331B681B0203F47F031A4329
:105B60007B689B695B7B796805331B010B440833B9
:105B70001B681B0A03F47F431A437B689B695B7BAA
:105B8000796805331B010B4408331B681B0E134354
:105B90003B617B6B93F82C30002B01D0022300E09B
:105BA000012387F82E3097F82F30DB00DBB2FB7231
:105BB0007B689B695B7B7A6805331B011344043364
:105BC0001B681A067B689B695B7B796805331B0140
:105BD0000B4404331B681B0203F47F031A437B68E6
:105BE0009B695B7B796805331B010B4404331B689D
:105BF0001B0A03F47F431A437B689B695B7B7968CC
:105C000005331B010B4404331B681B0E13437B61DC
:105C100097F82E301A067B689B695B7B79680533A1
:105C20001B010B4408331B6813431A0697F82E30E8
:105C300019067B689B695B7B786805331B0103440D
:105C400008331B680B431B0203F47F031A4397F8C6
:105C50002E3019067B689B695B7B786805331B01D6
:105C6000034408331B680B431B0A03F47F431A43A6
:105C700097F82E3019067B689B695B7B7868053343
:105C80001B01034408331B680B431B0E1343BB610A
:105C900097F82F30DB000C33FB633B8EFA6B9A4294
:105CA00001D93B8EFB6307F10803BB62002387F831
:105CB0003B3015E04023023097F83A305A1C87F801
:105CC0003A201A46BB6A1A447B6B196B97F83B3033
:105CD0000B4412781A7097F83B30013387F83B3049
:105CE00097F83B30032BE7D907F11403BB6200237D
:105CF00087F83A3014E097F83A30BA6A1A447B6B66
:105D0000196B97F83B300B4412781A7097F83B30B8
:105D1000013387F83B3097F83A30013387F83A304F
:105D200097F83A30072BE6D97B6B93F82C30002B91
:105D30002AD0002387F83A3020E007F10C03BB6239
:105D400013E097F839305A1C87F839201A46BB6A95
:105D50001A447B6B196B97F83B300B4412781A701E
:105D600097F83B30013387F83B3097F83B30072BEF
:105D7000E7D997F83A30013387F83A3097F83A2064
:105D800097F82F309A42D8D37B6BFA6B9A607B6B73
:105D900001229A767B6B1A6B7B6BDA607B6B00223D
:105DA0001A76786815F045FC034687F8333097F883
:105DB000333018464037BD4680BD00BF80B584B043
:105DC00000AF03463960FB7107F1080318461BF06A
:105DD00024FC0023FB6018E0284AFB681B011344E5
:105DE0001B68002B0ED0254AFB681B0113440E33A1
:105DF0001B78FA799A4205D1BB6818461BF02DFC36
:105E0000012337E0FB680133FB60FB68002BE3D024
:105E10000023FB6026E0194AFB681B0113441B6842
:105E2000002B1CD1154AFB681B0113440E33FA7971
:105E30001A70FB68DB00124A1A441049FB681B0108
:105E40000B4408331A60FB681B010C4A1A443B6878
:105E50001A60BB6818461BF000FC00230AE0FB68D0
:105E60000133FB60FB68002BD5D0BB6818461BF0E4
:105E7000F4FB022318461037BD4680BD5C2200208B
:105E80006C22002080B584B000AF0346FB71002374
:105E9000FB6007F1080318461BF0BFFB2CE01C4A0F
:105EA000FB681B0113441B68002B22D0184AFB68B7
:105EB0001B0113440E331B78FA799A4219D1144A04
:105EC000FB681B01134400221A60114AFB681B0186
:105ED0001344043300221A600D4AFB681B0113446B
:105EE0000E3300221A70BB6818461BF0B6FB002365
:105EF0000AE0FB680133FB60FB68002BCFD0BB6876
:105F000018461BF0AAFB042318461037BD4680BD77
:105F10005C22002080B584B000AF03463960FB717D
:105F20000023FB6007F1080318461BF076FB1EE018
:105F3000154AFB681B0113441B68002B14D0124A3E
:105F4000FB681B0113440E331B78FA799A420BD17C
:105F5000FB681B010C4A1A443B681A60BB68184670
:105F60001BF07BFB00230AE0FB680133FB60FB684E
:105F7000002BDDD0BB6818461BF06FFB04231846CE
:105F80001037BD4680BD00BF5C22002080B584B0C4
:105F900000AF786039600023FB6007F10803184602
:105FA0001BF03BFB16E0114AFB681B0113441B6806
:105FB0007A689A420BD1FB681B010C4A1A443B6871
:105FC0001A60BB6818461BF048FB00230AE0FB6818
:105FD0000133FB60FB68002BE5D0BB6818461BF063
:105FE0003CFB042318461037BD4680BD5C220020D0
:105FF00080B584B000AF03463960FB710023FB60BD
:1060000007F1080318461BF008FB1FE0154AFB6860
:106010001B0113441B68002B15D0124AFB681B019F
:1060200013440E331B78FA799A420CD10D4AFB685F
:106030001B0113441A683B681A60BB6818461BF0C2
:106040000CFB00230AE0FB680133FB60FB68002BBC
:10605000DCD0BB6818461BF000FB04231846103741
:10606000BD4680BD5C22002090B587B000AFF860CF
:106070000B467A60FB7201237B757B68002B01D194
:10608000042358E007F110031946F868FFF77EFF74
:1060900003463B753B7D002B01D004234BE00023DE
:1060A000BB7541E00023FB7536E0FB7D244A1B01F4
:1060B00013440C3319783B695B681868BA7D134642
:1060C0005B0013449B0003449B681B79994220D1D9
:1060D000FB7D1B4A1B01134408331C683B695B684A
:1060E0001968BA7D13465B0013449B000B445B6840
:1060F000F97A7A681846A04703463B753B7D052B25
:1061000001D1052317E03B7D002B09D100237B75CE
:1061100006E0FB7D0133FB75FB7D002BC5D000E065
:1061200000BFBB7D0133BB753B695B681B7ABA7DE1
:106130009A42B7D37B7D18461C37BD4690BD00BF41
:106140004423023090B587B000AF0346B9607A604F
:10615000FB737B68002B06D0BB68002B03D0BB68A9
:106160005B68002B01D1042370E007F11002FB7B78
:1061700011461846FFF722FE03467B757B7D002BF8
:1061800001D07B7D62E03B69BA685A603B691A4680
:10619000FB7B3049184614F002FE03467B757B7D7D
:1061A000002B0AD03B691B68184614F0DBFEFB7B12
:1061B0001846FFF767FE7B7D48E00023BB753AE099
:1061C0000023FB7531E03B695B681968BA7D1346B3
:1061D0005B0013449B000B449B681A79FB7D1E49AE
:1061E0001B010B440C331B789A421BD1FB7D1A4ACE
:1061F0001B0113441C683B695B681968BA7D134630
:106200005B0013449B00C8183B695B681968BA7D42
:1062100013465B0013449B000B441A1DFB7B014695
:106220001846A047FB7D0133FB75FB7D012BCAD9C6
:10623000BB7D0133BB753B695B681B7ABA7D9A42B3
:10624000BED33B691A687B681A607B7D18461C3791
:10625000BD4690BD59C401304423023000B583B01F
:106260000A4A0B480B4B0C49121AD20B5B1ADB0B78
:1062700000218DF804108DF805208DF8063001A856
:106280000EF0E4FD03B05DF804FB00BF0000062043
:1062900000000020000002000000000080B598B05F
:1062A00000AF7860174A07F10C0311464C221846DC
:1062B0001BF003FCBB6A7A6802FB03F303F17473FF
:1062C000BB650023FB6513E00023BB60FA6DBB6D6B
:1062D000134407F10801042218461BF05DFEBB6859
:1062E000B3F1FF3F01D0002307E0FB6D0433FB65F2
:1062F000FB6DB3F5805FE7DB012318466037BD46D1
:1063000080BD00BF6424023080B588B000AFF86063
:10631000B9607A603B60FB68DB69BA6803FB02F234
:106320007B68134403F174737B610023BB6114E049
:106330007A69BB69D0183A68BB6913441946FB688F
:106340009B691A461BF02CFEF861FB69002B09D1F2
:10635000FB689B69BA691344BB61BA69BB6A9A421C
:10636000E6D300E000BFFB69012B02D16FF05303BD
:106370000AE0FB69002B02D06FF0040304E0B96867
:10638000034816F033FC002318462037BD4680BD75
:10639000A023022080B584B000AF7860396000236C
:1063A000FB607B68DB693A6802FB03F303F17473FB
:1063B000BB6039681B4816F0E0FB0346002B01D098
:1063C00000232BE03868FFF769FF034683F00103E1
:1063D000DBB2002B11D0144B9B68002B02D0124B68
:1063E0009B689847B8681BF0FBFDF8600E4BDB68B4
:1063F000002B02D00C4BDB689847FB68012B02D1C5
:106400006FF053030AE0FB68002B02D06FF0040327
:1064100004E03968034816F0CDFB00231846103716
:10642000BD4680BDA0230220BC24022080B582B0DE
:1064300000AF78607B6818464C231A4600211BF099
:1064400064FB7B68194A5A607B68194A9A607B68CA
:10645000184ADA607B68184A1A617B684FF48072C8
:106460005A617B684FF480729A617B684FF4805266
:10647000DA617B684FF420721A627B6864225A6288
:106480007B684FF480729A627B684022DA627B6894
:106490000A4A1A637B680A4A5A637B68094A9A6304
:1064A000002318460837BD4680BD00BF27CC013009
:1064B000096300309563003085CC0130001700205F
:1064C000001800200019002080B584B000AF0346FA
:1064D000FB710023FB730023BB602E4B93F8C83085
:1064E000012B01D1002350E0012019F030F90346BF
:1064F000284A9367274B9B6F002B01D1FE23FB7328
:1065000097F90F30002B3ED12348FFF78FFFFB791F
:10651000002B03D020491F4818F062FF1E491D4878
:1065200018F074FFB860BB68002B04D1194B01222E
:1065300083F8C82017E0BB6813F1540F11D1164936
:10654000144818F04DFF1449124818F05FFFB86066
:10655000BB68002B02D10023FB7304E08E23FB7386
:1065600001E0FF23FB7397F90F30002B08D0094B94
:106570009B6F184619F0B8F9064B00229A6702E0A3
:10658000064801F07DFE97F90F3018461037BD46DA
:1065900080BD00BFF02302206C240220F01F0230D7
:1065A00080B483B000AF0346FB80B7F90630002B00
:1065B00012DBFB8803F01F020A49B7F906305B09BA
:1065C000012000FA02F2203341F82320BFF34F8F5D
:1065D00000BFBFF36F8F00BF00BF0C37BD465DF833
:1065E000047B704700E100E080B483B000AF044B4F
:1065F0007B6000BF7B685A1E7A60002BFAD1F8E7F7
:1066000040420F0080B584B000AF78600A200BF0E4
:1066100007F87B6804331B6843F001031A460C4BF0
:106620001A600C4A7B6893600B4BBB60BB6883F3BA
:10663000088800BF084BFB60FB6883F3098800BF34
:10664000034B1B68984700BF1037BD4680BD00BF95
:10665000CC24022000ED00E000002C2080B586B0A4
:1066600000AF00237B614FF0FF33FB600023BB6072
:1066700007F10C03184601F0B7F978617B69002B2C
:1066800002D04A4816F085FC7B69002B24D14FF0DC
:10669000FF337B603B1D184616F013FD7B68012B12
:1066A00002D07B68022B0ED17A68FB689A4204D034
:1066B0007B68184601F060FA78617B69002B0BD18A
:1066C0007B68FB6008E07B68052B05D17B68FB607D
:1066D0004FF02473BB6012E07B69002B0ED1FB6886
:1066E00007F108021146184600F06CFE78617B69DC
:1066F000002B03D02E4816F04CFC00E000BF7B6955
:10670000002B26D1BB68B3F1A87F03D0BB68B3F1DF
:10671000247F1ED100233B61BB68A3F580131A467A
:106720002449254801F0E6FD38613B69002B06D07D
:106730004FF0FF337B61214816F02BFC09E0BB686A
:1067400003F1405319461E4816F023FC4FF4801302
:10675000BB607B69002B09D1BB6803F14053BB6070
:10676000BB681946174816F014FC05E0164B9B68E9
:10677000BB60164816F00DFC64200AF051FFFCF7D0
:106780004BFBFCF7FFFA1F20FFF70AFF082002F07F
:106790005BF8BB681846FFF735FFFFF725FF0020C1
:1067A0000AF0DCFE00BF1837BD4680BDB0240230C1
:1067B000DC24023000005031000010300C25023083
:1067C000282502305025023000ED00E07825023007
:1067D00080B582B000AF00237B6000233B603B4666
:1067E000184601F0B5F8786064200AF019FFFCF74C
:1067F00013FBFCF7C7FA1F20FFF7D2FE7B68002BC4
:1068000002D0054B9B683B603B681846FFF7FAFED9
:1068100000BF0837BD4680BD00ED00E080B584B004
:1068200000AF78600023FB720023FB60144BDB7821
:106830001946134B9B781A46114B1B88114816F0CA
:10684000A8FB0721022016F00DFC00E000BFFB7A38
:10685000DBB2002BFAD116F036FD0346002B02D036
:1068600000200AF001FF084816F093FB08210220DF
:1068700016F0F8FBFFF7F2FE00BF1037BD4680BDF3
:1068800018010020B0250230D825023080B483B032
:1068900000AF0346FB80B7F90630002B0BDBFB880B
:1068A00003F01F020749B7F906305B09012000FA1F
:1068B00002F241F8232000BF0C37BD465DF8047B8F
:1068C000704700BF00E100E080B483B000AF034632
:1068D0003960FB80B7F90630002B0ADB3B68DAB27F
:1068E0000C49B7F906301201D2B20B4483F80023E9
:1068F0000AE03B68DAB20849FB8803F00F03043B67
:106900001201D2B20B441A7600BF0C37BD465DF8B7
:10691000047B704700E100E000ED00E080B500AFCF
:10692000044B1B68184613F0EEFCBFF34F8F00BFFB
:1069300000BF80BDD024022080B500AF044B1B688F
:10694000184613F0E0FCBFF34F8F00BF00BF80BDBF
:10695000D024022080B582B000AF0D4A3B1D1268E2
:10696000114619800233120C1A700A4900200EF0E9
:1069700049F9084900201AF0ADF83B1D1A460549AF
:106980000220FCF71BFB00BF0837BD4680BD00BFDF
:10699000FC25023000366E0180B58AB000AFF86089
:1069A000B9607A60012387F82730BB68013B102B60
:1069B00000F2968001A252F823F000BF016A003075
:1069C000076A0030256A00303F6A0030596A00309B
:1069D000E16A0030856A00308B6A00309D6A0030C1
:1069E000E16A0030AF6A0030E16A0030E16A0030ED
:1069F000E16A0030E16A0030B56A0030CB6A0030ED
:106A00007B687B616DE07B687B617B6918687B6973
:106A100059687B699B681A4601F034FD034687F884
:106A200027305EE07B687B61314B1A697B691B68AC
:106A300003F01F035B021A447B699A6051E07B6894
:106A40007B612B4B1A697B691B6803F01F035B0298
:106A50001A447B699A6044E07B68BB61BB69012290
:106A60001A60BB694FF400729A60BB694FF4204210
:106A70005A60BB694FF0A072DA60BB694FF0A07238
:106A80001A612EE07B68FB612BE07B68FB61FB6990
:106A900024225A60FB69174A9A6022E07B68FB61F6
:106AA000FB6908225A60FB69134A9A6019E07B6807
:106AB000FB6116E07B683B623B6A4FF400725A60F0
:106AC0003B6A4FF420421A600BE07B683B623B6AF2
:106AD0004FF400725A603B6A4FF420421A6000E0A3
:106AE00000BF97F8273018462837BD4680BD00BF45
:106AF000D0240220000000202400002080B588B0AF
:106B000000AFF860B9607A600123FB777B68BB61F6
:106B10007B687B61BB68013B152B00F2BB8001A247
:106B200052F823F07D6B0030956C0030956C00308E
:106B3000956C0030956C0030956C0030956C003091
:106B4000956C0030A96B0030DD6B0030596C003063
:106B50006D6C0030816C0030956C0030956C0030AD
:106B6000956C0030956C0030956C0030956C003061
:106B7000956C0030076C00301B6C00304F4B0022CE
:106B80005A764E4B00229A750023FB774C4902201F
:106B900015F091FC0346002B7ED1484B1B7E194615
:106BA000F86802F0CBFD77E07B691B78002B06D1FB
:106BB000424B00225A76414B00229A7579E07B695C
:106BC0001B78012B07D13D4B01225A767B691A783D
:106BD0003A4B9A756DE00523FB776AE0374B5B7E95
:106BE000002B5BD0BB691B881B0A9BB2BB74BB69C3
:106BF0001B887B74BB7C002B50D1BB7C2F4A134479
:106C00007A7CDA754AE07B68002B49D02B4B9A7D61
:106C10007B691A700023FB7742E07B68002B41D030
:106C2000BB691B881B0A9BB2FB74FB7C002B10D139
:106C3000BB691B8823F0FF039AB2FB7C1F490B44FE
:106C4000DB7D9BB213439AB2BB691A800023FB77AA
:106C500028E00523FB7725E07B68002B24D07968AA
:106C6000F86802F0DDFC0346FB771DE07B68002B33
:106C70001CD07968F86802F0E7FC0346FB7715E062
:106C80007B68002B14D07968F86802F0F7FC0346A3
:106C9000FB770DE000BF0CE000BF0AE000BF08E09A
:106CA00000BF06E000BF04E000BF02E000BF00E05C
:106CB00000BFFB7F18462037BD4680BDD024022090
:106CC000E824022080B500AFFFF744FE1B4B0022F2
:106CD0001A761A4B00225A76184B00225A60174B2C
:106CE00000221A604FF400721549164801F068FB43
:106CF000124B144A1A61114A13490220FFF722FA73
:106D00000346002B03D0114816F043F907E0104862
:106D100016F03FF90C4B1B685B68084A536015F08E
:106D2000D7FF0C4941F288300EF01AF8034B1B686C
:106D3000184614F0FBF800BF80BD00BFD02402202D
:106D4000DC240220742200202801002000260230CA
:106D50001C26023000CA9A3B80B584B002AF0023E3
:106D60007B6001F073FB0346FB70FB78032B1BD0A9
:106D7000032B1EDC002B05D0002B1ADB013B012B63
:106D800017D808E00E4B00930E4B05220521012079
:106D900001F01AFD0EE00A4B00930A4B0522042174
:106DA000012001F011FD05E00321012016F05AF940
:106DB00000E000BF7B6818460837BD4680BD00BFB5
:106DC00044020020EC24022080B584B000AF0023F0
:106DD000BB6001F03BFB0346FB7301F02BFB7860CB
:106DE000FB7B032B14D1164816F0D3F87B685BB2FB
:106DF0000021184616F0ABF9BB68B3F1FF3F07D18D
:106E00000423FB73042001F02DFB0E4816F0C1F89B
:106E1000FB7B042B01D116F006F94FF47A700AF0CF
:106E2000FFFB094B1B68184614F08EF84FF47A707C
:106E30000AF0F6FBFFF7CCFC00BF1037BD4680BD63
:106E4000402602304C260230D024022080B582B089
:106E500000AF7860FFF780FF024B1B68184615F003
:106E60004EFFF7E7D024022080B584B002AF7860EF
:106E7000FFF728FF0F4B1B68002B12D00D4B1B6830
:106E80000D4A01920522009240F2E2420B490C4861
:106E900018F0B6FE0346012B03D00A4816F079F825
:106EA00005E000200AF0E0FBFFF78EFFF9E7083766
:106EB000BD4680BDD0240220D824022058260230AE
:106EC0004D6E00306826023080B582B002AF0B4BA9
:106ED0000193042300930A4B40F2E24209490A4815
:106EE00018F08EFE0346012B04D0084816F051F826
:106EF000012300E001231846BD4680BDDC240220AA
:106F0000D024022088260230696E003068260230C4
:106F100080B584B000AF78604FF0FF33BB601E4A8D
:106F20007B68136000F0B8FBF860FB68002B05D1AC
:106F300007F10803184600F057FDF860164815F0F1
:106F400046FFFB68002B06D1134B1B6813491846FC
:106F500000F038FAF860FB68002B06D10E4B1B6876
:106F60000F49184600F076FAF8600E4B00221A60BE
:106F70004FF48052FF210C4815F004FFFB68002BF2
:106F800004D14FF4806000F07BFCF860FB68184689
:106F90001037BD4680BD00BF34010020F034022010
:106FA000F4340220F8340220F024022080B590B09E
:106FB00000AFF860B9607A600023FB6300233B6395
:106FC0000023BB630023FB62FB68DBB2BB62FB6890
:106FD00023F0FF037B62FA687B6AD31A7B6300238A
:106FE0003B624FF48033FB610023FB75BB68002BD1
:106FF00002D07B68002B02D14FF0FF33C4E0FA6867
:107000007B681A44624B1B689A4202D94FF0FF33E7
:10701000BAE007F1170319464FF4806000F00AFC4C
:107020000346002B02D04FF0FF33ADE0FB7D83F031
:107030000103DBB2002B02D04FF0FF33A4E04FF48A
:107040008052FF21534815F09DFEFA687B681A4470
:10705000514B1B689A4204D9FA687B6813444E4A24
:107060001360BB6A002B00F08A804C4B1A687B6A65
:1070700013444FF48071184600F054FC474B1A68D3
:107080007B6A13447A6B434918461AF085FF03461E
:10709000002B74D04FF0FF3376E07A68FB6BD21A86
:1070A0007B6B1344FF2B03D97B6BC3F5807302E02A
:1070B0007A68FB6BD31A3B63BB6B1B027A6A13447F
:1070C000FB627A6B3B6B1344FF2B1ED87A6B3B6BD6
:1070D0001344C3F58073BB61FA6A7B6B13443A6B4C
:1070E00013443B622D4B1A683B6AD0187A6B3B6B9A
:1070F0001344284A1344BA6919461AF04DFF03464F
:10710000002B02D04FF0FF333EE07B6B214A13444B
:107110003A6BB96818461AF0D0FCFB6A3B621F4B09
:107120001A683B6A1344FA69B3FBF2F2F96901FB8E
:1071300002F29B1A002B07D1184B1A683B6A1344C2
:10714000F969184615F0FBFD144B1A683B6A1344A5
:10715000104918461AF02CFF0346002B02D04FF0BE
:10716000FF3311E0FA6B3B6B1344FB63BA683B6B74
:107170001344BB60BB6B0133BB6300237B63FA6BBF
:107180007B689A4289D3002318464037BD4680BDAC
:10719000F4340220F0240220F8340220F0340220DB
:1071A00080B582B000AF00237B60234B1B68234A6D
:1071B00012680121184600F08FF978607B68002B77
:1071C00004D14FF4807000F05BFB78607B68002B8B
:1071D0001DD1194B1B68012B03D0174B1B68022BC9
:1071E00015D1174815F0D5FE134B1B681A46154BE1
:1071F0005A6100F087F878607B68002B07D112484D
:1072000015F0C7FE4FF4007000F03AFB78607B6821
:10721000002B04D0084B1B68B3F1FF3F07D10B488C
:1072200015F0B7FE4FF4806000F052FB78607B6889
:1072300018460837BD4680BD34010020F8340220CE
:107240009826023000350220B4260230CC260230C7
:1072500080B582B000AF00237B600023FB7000F09C
:107260001BFA78607B68002B06D1FB1C19464FF493
:10727000007000F0DFFA7860FB78002B36D01F4BEF
:107280005B691A461E4B1A601D4B1B68002B03DB03
:107290001B4B1B68052B02DD4FF0FF337B607B68C7
:1072A000002B0BD1154BDB68154A1268934205D0B1
:1072B000134B1B68184600F05FFC78607B68002B5E
:1072C00004D14FF4807000F003FB78607B68002BE2
:1072D00004D14FF4007000F0FBFA78607B68002B5B
:1072E00007D1102000F0CCFA786002E04FF0FF33B5
:1072F0007B607B6818460837BD4680BD003502209C
:107300003401002080B588B000AF0023FB612A4B18
:10731000BB612A481AF064FEF861FB69002B3BD17F
:10732000264B7B61264BBB60BA687B69D31A3B61F5
:107330003B691B0AFB603B69DBB27B6000233B605F
:107340007B68002B02D0FB680133FB603B69B3F51F
:10735000807F28BF4FF480733B603A68B9697869D1
:107360001AF01EFEF861FB69002B03D04FF0FF33CB
:10737000FB6111E07B6903F580737B61BB6903F5F9
:107380008073BB613B69A3F580733B61FB68013B84
:10739000FB60FB68002BD9D1FB69002B06D140F2C2
:1073A0005472054905481AF0F7FDF861FB69184663
:1073B0002037BD4680BD00BF0035022000F0FF032E
:1073C00054F7FF0380B485B000AF786039604FF0A8
:1073D000FF33FB603B68002B34D07B68042B25D83F
:1073E00001A252F823F000BFFD7300300574003095
:1073F0000F74003019740030237400303B68002291
:107400001A6018E03B684FF480121A6013E03B6882
:107410004FF0A8721A600EE03B684FF4E0021A6069
:1074200009E03B684FF0D8721A6004E03B684FF007
:10743000FF321A6000BF3B681B68B3F1FF3F01D009
:107440000023FB60FB6818461437BD465DF8047BDB
:10745000704700BF80B485B000AF786039604FF0EE
:10746000FF33FB603B68002B2ED07B68042B21D8B8
